:100000000C943E000C9448000C9448000C9448005A
:100010000C9448000C9448000C9448000C94480040
:100020000C9448000C9448000C9448000C94480030
:100030000C9448000C9448000C9448000C94480020
:100040000C9448000C9448000C9448000C94480010
:100050000C9448000C9448000C9448000C94480000
:100060000C9448000C9448000C9448000C944800F0
:100070000C9448000C9448000C94480011241FBEB6
:10008000CFEFD8E0DEBFCDBF0E944A000C94C8007D
:100090000C9400008FEF87B91AB8C8EBDBE0EEE1F3
:1000A000F0E042E011E028EB3BE048B9C901BF01B4
:1000B0000E94B40080E090E08617970731F05AE183
:1000C0005A95F1F700C00196F7CF18B8CE01821B00
:1000D000930BBF010E94B40080E090E08617970761
:1000E00031F05AE15A95F1F700C00196F7CF21504F
:1000F0003109D9F68FEF94E32CE0815090402040F5
:10010000E1F700C0000028EB3BE018B9C901BF01CE
:100110000E94B40080E090E08617970731F05AE122
:100120005A95F1F700C00196F7CF18B8CE01821B9F
:10013000930BBF010E94B40080E090E08617970700
:1001400031F05AE15A95F1F700C00196F7CF2150EE
:100150003109D9F68FEF94E32CE081509040204094
:10016000E1F700C000009FCFAA1BBB1B51E107C0F5
:10017000AA1FBB1FA617B70710F0A61BB70B881F37
:10018000991F5A95A9F780959095BC01CD010895C6
:04019000F894FFCF11
:00000001FF
