:100000000C943E000C9448000C9448000C9448005A
:100010000C9448000C9448000C9448000C94480040
:100020000C9448000C9448000C9448000C94480030
:100030000C9448000C9448000C9448000C94480020
:100040000C9448000C9448000C9448000C94480010
:100050000C9448000C9448000C9448000C94480000
:100060000C9448000C9448000C9448000C944800F0
:100070000C9448000C9448000C94480011241FBEB6
:10008000CFEFD8E0DEBFCDBF0E944A000C94CC0079
:100090000C9400008FEF87B91AB8C8EBDBE0EEE1F3
:1000A000F0E042E011E028EB3BE048B9C901BF01B4
:1000B0000E94B80080E0A82FB0E0A617B70730F480
:1000C00093E19A95F1F700C08F5FF5CF18B8CE0194
:1000D000821B930BBF010E94B80080E0A82FB0E004
:1000E000A617B70730F493E19A95F1F700C08F5F38
:1000F000F5CF21503109C9F62FE986E891E021506A
:1001000080409040E1F700C0000028EB3BE018B9C8
:10011000C901BF010E94B80080E0A82FB0E0A61777
:10012000B70730F493E19A95F1F700C08F5FF5CFF0
:1001300018B8CE01821B930BBF010E94B80080E06B
:10014000A82FB0E0A617B70730F493E19A95F1F71E
:1001500000C08F5FF5CF21503109C9F62FE986E83D
:1001600091E0215080409040E1F700C000009BCF1B
:10017000AA1BBB1B51E107C0AA1FBB1FA617B707CD
:1001800010F0A61BB70B881F991F5A95A9F78095E9
:0C0190009095BC01CD010895F894FFCFBC
:00000001FF
