:100000000C943E000C9448000C9448000C9448005A
:100010000C9448000C9448000C9448000C94480040
:100020000C9448000C9448000C9448000C94480030
:100030000C9448000C9448000C9448000C94480020
:100040000C9448000C9448000C9448000C94480010
:100050000C9448000C9448000C9448000C94480000
:100060000C9448000C9448000C9448000C944800F0
:100070000C9448000C9448000C94480011241FBEB6
:10008000CFEFD8E0DEBFCDBF0E9463000C94FA0131
:100090000C94000090E0981741F0E9EFF0E0319700
:1000A000F1F700C000009F5FF6CF089520E030E038
:1000B0002817390739F048E04A95F1F700002F5F1B
:1000C0003F4FF6CF0895CF93DF931F92CDB7DEB7A2
:1000D0008FEF87B91AB831E1C32E42E0D42E09E17F
:1000E00010E054ECE52E59E0F52E25E0622E712C3F
:1000F00060E096E7A92EB12C9C2C961AD8B8862FD2
:1001000069830E944A0018B8892D0E944A0081E044
:10011000A81AB1086981A114B10481F770E080E0E8
:1001200090E00E945A0120E030E048E850E40E944C
:10013000C8000E942C0181E0681A7108D1F6412C98
:10014000512CC201B8010E94E6014B01C70184197C
:100150009509B8010E94E6015B0180E2682E83E008
:10016000782ED8B8C4010E94560018B8C5010E9464
:10017000560081E0681A7108A1F78FE8481A8DEFE0
:10018000580A85E348168CE05806D9F6AECF505889
:10019000BB27AA270ED0E0C0D1D030F0D6D020F0B7
:1001A00031F49F3F11F41EF4C6C00EF4E095E7FB56
:1001B000BCC0E92FE2D080F3BA1762077307840747
:1001C000950718F071F49EF5FAC00EF4E0950B2E29
:1001D000BA2FA02D0B01B90190010C01CA01A00199
:1001E0001124FF27591B99F0593F50F4503E68F1F4
:1001F0001A16F040A22F232F342F4427585FF3CF35
:10020000469537952795A795F0405395C9F77EF405
:100210001F16BA0B620B730B840BBAF09150A1F04E
:10022000FF0FBB1F661F771F881FC2F70EC0BA0FD4
:10023000621F731F841F48F4879577956795B7955C
:10024000F7959E3F08F0B3CF9395880F08F0992754
:10025000EE0F97958795089598D088F09F5790F066
:10026000B92F9927B751A0F0D1F0660F771F881FDB
:10027000991F1AF0BA95C9F712C0B13081F09FD01A
:10028000B1E008959CC0672F782F8827B85F39F0B8
:10029000B93FCCF3869577956795B395D9F73EF43A
:1002A00090958095709561957F4F8F4F9F4F0895E2
:1002B000E89409C097FB3EF4909580957095619500
:1002C0007F4F8F4F9F4F9923A9F0F92F96E9BB27B6
:1002D0009395F695879577956795B795F111F8CF32
:1002E000FAF4BB0F11F460FF1BC06F5F7F4F8F4F9D
:1002F0009F4F16C0882311F096E911C0772321F093
:100300009EE8872F762F05C0662371F096E8862F2A
:1003100070E060E02AF09A95660F771F881FDAF781
:10032000880F9695879597F9089597F99F6780E8C4
:1003300070E060E008959FEF80EC089500240A9437
:100340001616170618060906089500240A941216B0
:100350001306140605060895092E0394000C11F4E3
:10036000882352F0BB0F40F4BF2B11F460FF04C090
:100370006F5F7F4F8F4F9F4F089557FD9058440FE9
:10038000551F59F05F3F71F04795880F97FB991FF4
:1003900061F09F3F79F087950895121613061406B1
:1003A000551FF2CF4695F1DF08C01616170618063E
:1003B000991FF1CF86957105610508940895E89419
:1003C000BB2766277727CB0197F90895AA1BBB1B8C
:1003D00051E107C0AA1FBB1FA617B70710F0A61B45
:1003E000B70B881F991F5A95A9F780959095BC0166
:0803F000CD010895F894FFCF40
:00000001FF
