:100000000C943E000C9448000C9448000C9448005A
:100010000C9448000C9448000C9448000C94480040
:100020000C9448000C9448000C9448000C94480030
:100030000C9448000C9448000C9448000C94480020
:100040000C9448000C9448000C9448000C94480010
:100050000C9448000C9448000C9448000C94480000
:100060000C9448000C9448000C9448000C944800F0
:100070000C9448000C9448000C94480011241FBEB6
:10008000CFEFD8E0DEBFCDBF0E944A000C948100C4
:100090000C9400008FEF87B98AB922E031E028B9CB
:1000A0004FEB87E299E0415080409040E1F700C07B
:1000B000000038B9EFEBF7E249E0E150F040404092
:1000C000E1F700C0000080E090E028B9E9EFF0E03F
:1000D0003197F1F700C0000038B9EFECF7E0319745
:1000E000F1F700C0000001968436910571F7FFEB2F
:1000F00047E289E0F15040408040E1F700C0000055
:06010000CECFF894FFCF02
:00000001FF
